:020000040800F2
:100000002806002045010008D3210008B71B00087E
:10001000D1210008DD010008D12B000800000000FC
:1000200000000000000000000000000003240008A1
:100030000902000800000000012400082124000833
:100040005F0100085F0100085F0100085F01000810
:100050005F0100085F0100085F0100085F01000800
:100060005F0100085F0100085F0100085F010008F0
:100070005F0100085F0100085F0100085F010008E0
:100080005F0100085F0100085F0100085F010008D0
:100090005F0100085F0100085F0100085F010008C0
:1000A0005F0100085F0100085F0100085F010008B0
:1000B0005F0100085F010008852400085F01000857
:1000C0005F0100085F0100085F0100085F01000890
:1000D0005F0100085F0100085F0100085F01000880
:1000E0005F0100085F0100085F0100085F01000870
:1000F0005F0100085F0100085F0100085F01000860
:100100005F0100085F0100085F0100085F0100084F
:100110005F010008452900085F0100085F01000831
:100120005F0100085F0100085F0100085F0100082F
:10013000DFF80CD000F040F800480047212E0008FE
:10014000280600200648804706480047FEE7FEE7ED
:10015000FEE7FEE7FEE7FEE7FEE7FEE7FEE7FEE777
:100160008324000831010008D2B201E000F8012B1D
:10017000491EFBD270470022F6E710B513460A4627
:1001800004461946FFF7F0FF204610BD30B50B4678
:10019000014600202022012409E021FA02F59D42B7
:1001A00005D303FA02F5491B04FA02F52844151E8B
:1001B000A2F10102F1DC30BD064C074D06E0E0681B
:1001C00040F0010394E8070098471034AC42F6D39E
:1001D000FFF7B2FFB4320008D4320008FEE7000097
:1001E00010B5084C01221146204600F0ECF9C82059
:1001F00000F0D6F820460022BDE81040012100F0B2
:10020000E2B90000000C0140704772B6FEE710B57D
:100210006FF013040021204602F0BCFF2046BDE829
:100220001040012102F0B6BF10B590F82110002255
:10023000022905D00421816380F82020012010BD0F
:1002400001680B6823F00E030B6001680B6823F054
:1002500001030B6090F84030C46B012101FA03F3F5
:10026000636080F8211080F82020104610BD000047
:100270002DE9F05F90F821100024022903D0042119
:100280008163012485E001680A6822F00E020A6099
:1002900001680A6822F001020A603F4E3E4FB21523
:1002A000DFF8F4C0DFF8F090DFF8ECA0DFF8E8B09A
:1002B000DFF8E4E00168783F13011502ACF1640C4B
:1002C000A9F15009AAF13C0AABF1280BAEF1140ECA
:1002D0004FF48018B14227D9B9420ED0614512D0EF
:1002E00049451DD0514518D0594518D0714501D107
:1002F000424615E0294EB14201D1012210E0274EBD
:100300001436B14201D110220AE0244E2836B142FF
:1003100006D0224A3C32914201D11A4600E02A46D8
:100320001E49091F0A602BE0B94213D0614517D05E
:10033000494522D051451DD059451DD0714501D1A7
:1003400042461AE0B14202D14FF0807215E0134EDE
:10035000B14201D1012210E0104E1436B14201D158
:1003600010220AE00D4E2836B14206D00B4A3C322C
:10037000914201D11A4600E02A46074980394A6075
:10038000012180F82110002180F82010416B01B17B
:1003900088472046BDE8F09F8000024008040240E4
:1003A00070B5044600F014F90546601C02D00448FC
:1003B0000078044400F00CF9401BA042FAD370BD51
:1003C000100000202DE9F84FDFF8C8910024A9F1B2
:1003D000040B23460F2709F1040AABF1040ED1E008
:1003E0000125A54006EA0502AA4276D1DFF8A8C198
:1003F0004E68A6EB0C0866452BD00DDC032E34D0DE
:1004000005DC36B3012E19D0022E2FD11BE0112EA0
:1004100016D0122E2AD119E0B8F5881F19D006DCA3
:10042000B8F5803F15D0B8F5801F1FD111E0B8F5A1
:10043000001F0ED0B8F5041F18D10AE0CB6815E0F4
:10044000CB681B1D12E0CB6808330FE0CB680C3380
:100450000CE08B682BB1012B4FF0080303D04561F2
:1004600004E0042302E0056100E00023FF2A01D834
:10047000064601E000F104064FEA840501D9A5F122
:100480002005D6F8008007FA05FC28EA0C0803FAD4
:1004900005F548EA0508C6F800804D68ED0070D5FE
:1004A0003E4DAE6946F00106AE61AD6924F003062B
:1004B00005F0010500953A4D06EB050CDCF80850F7
:1004C000A607360F07FA06F825EA0805DFF8D480F4
:1004D000404503D14FF0000825E052E0DFF8C88026
:1004E000404502D14FF001081DE0DFF8C0804045D3
:1004F00002D14FF0020816E0DFF8B480404502D187
:100500004FF003080FE0DFF8AC80404502D14FF018
:10051000040808E0DFF8A080404502D14FF005084C
:1005200001E04FF0060808FA06F848EA0508CCF89A
:1005300008804D68D9F80060ED024D4601D516439C
:1005400000E096432E604D68DAF80060AD02554633
:1005500001D5164300E096432E604D68DBF800603D
:10056000AD035D4601D5164300E096432E604D680D
:10057000DEF80060ED03754601D5164300E09643B2
:100580002E60641C0A681646E2407FF429AFBDE87D
:10059000F88F000008040140000011100010024014
:1005A0000000014000080140000C01400010014023
:1005B0000014014000180140001C01408068084000
:1005C00000D0012070470AB1016170470904FBE7C0
:1005D00001488068704700001000002070B50400DA
:1005E00025D094F83D00002520B984F83C502046E1
:1005F00000F04EF9242084F83D002068016821F0C5
:10060000010101602068016841F400410160206837
:10061000016821F40041016000F0A0FA4D4A6168D0
:10062000914201D84C4900E04C49884201D2012056
:1006300070BD4B492368B0FBF1F15E6826F03F06C0
:100640000E435E606368934206D94FF49673594334
:100650004FF47A73B1FBF3F12368491C1E6A26F04C
:100660003F06314319626168914210D84900401E2B
:10067000B0FBF1F2521CC2F30B02042A01D2042097
:1006800022E0B0FBF1F0401CC0F30B001CE0A268BC
:10069000F2B301EBC10303EB0116431EB3FBF6F308
:1006A0005B1C43F480431B0549D092B301EBC102AC
:1006B00002EB0111401EB0FBF1F0401CC0F30B0037
:1006C00040F4804040F400402168CA694CF6FF7352
:1006D0009A431043C861D4E90710014320680268B7
:1006E00022F0C00211430160D4E9030101432068F4
:1006F000826848F2FF339A4311438160D4E90501CF
:1007000008432168CA6822F0FF021043C86001E074
:100710000EE016E02068016841F0010101602564E7
:10072000202084F83D00256384F83E50002070BDF1
:1007300001EB4106431EB3FBF6F35B1CB3E701205C
:10074000C2E701EB4101401EB0FBF1F0401CC0F3D9
:100750000B00B7E7A086010080841E0000093D0061
:1007600040420F002DE9F84F1F4690468A46044646
:10077000DDF82890FFF72CFF054694F83D0020286F
:100780007FD11923012240492046009501F0A6FAA5
:10079000002876D194F83C00012872D0012084F81A
:1007A0003C0020680168C90703D1016841F00101DC
:1007B00001602068016821F400610160212084F853
:1007C0003D00102084F83E0000262664C4F82480F2
:1007D0006785608D20852D48E0622B464A4651464C
:1007E000204601F001FA90B92068416980690090C3
:1007F00036E02A464946204601F016FB50B1206CEF
:10080000042804D12068016841F4007101600120CE
:10081000BDE8F88F606A216800780861606A401C52
:100820006062618D491E6185218D491E89B22185D5
:1008300022685369DB435B070BD451B10078106128
:10084000606A401C6062608D401E6085208D401E85
:1008500020852A464946204601F014FA0028CED1C8
:10086000208D0028C5D154F83D0B016841F400717A
:100870000160202004F81E09E67766770020C7E7AC
:10088000FFE70220C4E70000020010000000FFFFA5
:1008900010B586B00021009101910291039100688A
:1008A0001349884222D1134CA06940F00800A0618E
:1008B000A069694600F0080004904FF44070009071
:1008C00012200190032003900B48FFF77BFD0B489B
:1008D000416841F0E06141F002014160E06940F4AB
:1008E0000010E061E06900F40010049006B010BD53
:1008F0000054004000100240000C01400000014084
:10090000024881680278114481607047100000201D
:10091000074810B5016841F010010160032000F0A4
:1009200075F80F2000F006F800F024F8002010BD44
:100930000020024070B50D4D04464FF47A712878BE
:10094000B1FBF0F00A490968B1FBF0F000F0DCFA05
:1009500048B9102C07D200222146501E00F036F86C
:1009600000206C6070BD012070BD000010000020F0
:100970001C0000200C4808B5816941F0010181612B
:10098000816901F001010091C16941F08051C161AB
:10099000C06900F0805000900448416821F0E06197
:1009A00041F00071416008BD0010024000000140AC
:1009B000002809DB00F01F0201219140400980005E
:1009C00000F1E020C0F8001170470000F0B40E4BB9
:1009D0001B680C46C3F30223C3F10705042D00D99D
:1009E0000425191D072901D2002300E0DB1E012682
:1009F00006FA05F1491E214099409E40761E164098
:100A00003143F0BC02F0F6B80CED00E0064900F00E
:100A1000070208684FF6FF03184040EA0220034A25
:100A200010430860704700000CED00E00000FA057C
:100A30002DE9F0470F46050061D0434E306800F0C5
:100A40000700B84209D2306820F007003843306010
:100A5000306800F00700B84251D128683B4C81074C
:100A600012D5400703D5606840F4E06060602878E4
:100A7000000703D5606840F4605060606068A96852
:100A800020F0F000084360602878C00728D068682C
:100A9000012810D02168022810D0890700292EDAF9
:100AA000616821F0030101436160FFF791FD804619
:100AB00041F288390DE021688903EFE78901EDE70C
:100AC000FFF786FDA0EB0801494502D90320BDE8E8
:100AD000F0876068696800F00C00B0EB810FEFD11F
:100AE000306800F00700B8420BD9306820F00700EA
:100AF00038433060306800F00700B84201D0012070
:100B0000E5E72878400705D56068E96820F4E060EB
:100B1000084360602878000706D56068296920F4DA
:100B2000605040EAC100606000F038F86168084A2F
:100B3000C1F30311515CC8400649086006480068CB
:100B4000FFF7F8FE0020C2E700200240001002403C
:100B50009A3200081C0000201400002004480549B7
:100B600000684968044AC1F30221515CC8407047DB
:100B70001C00002000100240AA3200080448054969
:100B800000684968044AC1F3C221515CC8407047FB
:100B90001C00002000100240AA3200080E4A5168D2
:100BA0000E4801F00C03042B11D0082B0FD10C4878
:100BB000C1F38343C903C05C0AD55168084AC1F335
:100BC0004041921E515C054A5043B0FBF1F0704722
:100BD00004494843704700000010024000127A00A8
:100BE0008A32000800093D002DE9F84F040070D05A
:100BF0002078C04DC00749D06868C0F38100012843
:100C000007D06868C0F38100022809D16868C00372
:100C100006D52868800339D560680028E7D035E01C
:100C20006068B0F5803F0BD010B1B0F5A02F11D0A7
:100C3000286820F480302860286820F4802002E0B2
:100C4000286840F480302860606890B1FFF7C0FCED
:100C500006460AE0286840F480202860F0E700BFDC
:100C6000FFF7B6FC801B642873D828688003F7D58B
:100C70000CE0FFF7ADFC064605E000BFFFF7A8FC5F
:100C8000801B6428F0D828688003F7D420789A4E17
:100C900080074FF001094FF0000839D5686810F05F
:100CA0000C0F07D06868C0F38100022809D168687A
:100CB000C00306D42868800714D52069012808D10C
:100CC00010E02069B0B1C6F80090FFF781FC07463C
:100CD00005E00AE1FFF77CFCC01B0228C4D82868A5
:100CE0008007F7D52868616920F0F80040EAC10064
:100CF00028600DE0C6F80080FFF76AFC074604E0B4
:100D0000FFF766FCC01B022823D828688007F7D4A9
:100D1000207800072CD57948A169D9B1C0F8009096
:100D2000FFF756FC074604E0FFF752FCC01B022801
:100D30000FD8686A8007F7D571484FF4FA510068F8
:100D4000B0FBF1F0009000BF0098411E0091FAD274
:100D50000EE080E0C0F80080FFF73AFC074604E0B0
:100D6000FFF736FCC01B022875D8686A8007F7D4E5
:100D70002078400760D5E8690027C00008D4E869FA
:100D800040F08050E861E869012700F08050009051
:100D90005C480168C90513D40168834641F4807139
:100DA0000160FFF715FC824606E000BFFFF710FC6C
:100DB000A0EB0A0064284ED8DBF80000C005F5D58A
:100DC000E06801280AD008B1052813D0286A20F06D
:100DD00001002862286A20F0040002E0286A40F03E
:100DE00001002862E06841F2883B98B1FFF7F0FB10
:100DF00082460BE0286A40F004002862EEE700BF5C
:100E0000FFF7E6FBA0EB0A0159455AD8286A80078C
:100E1000F6D50CE0FFF7DCFB824605E0FFF7D8FBD8
:100E2000A0EB0A0159454CD8286A8007F6D41FB1B7
:100E3000E86920F08050E861E06988B36968C1F32F
:100E40008101022944D00228C6F8608004D0FFF74F
:100E5000BFFB044638E034E0FFF7BAFB074604E086
:100E6000FFF7B6FBC01B02282BD828688001F7D4F7
:100E7000206AB0F5803F05D16868A16820F4003091
:100E800008436860D4E908010843696821F47411D3
:100E900008436860C6F86090FFF79AFB044606E0D6
:100EA00025E000BFFFF794FB001B022809D8286843
:100EB0008001F7D51BE000BFFFF78AFB001B02286B
:100EC00002D90320BDE8F88F28688001F4D40EE031
:100ED0000128F7D06868226A00F48031914204D179
:100EE000616A00F47010884201D00120EAE7002016
:100EF000E8E7000000100240000042428004424245
:100F00001C0000200070004010B5401EB0F1807F32
:100F100001D3012010BD4FF0E02460610F21601764
:100F200001F068FE0020A06107202061002010BDB4
:100F30007047704770B590F83C20012A2CD00124EE
:100F400080F83C40022280F83D2003685A689D6882
:100F500022F070060A6832435A60104B02689A42C7
:100F60000ED00F4B9A420BD0B2F1804F08D00D4BF0
:100F70009A4205D00C4B9A4202D00C4B9A4204D1B3
:100F8000496825F080031943916080F83D400021B5
:100F900080F83C10084670BD022070BD002C014056
:100FA000003401400004004000080040000C0040F4
:100FB00010B5040003D094F83D0010B107E0012003
:100FC00010BD002084F83C00204600F01FF80220ED
:100FD00084F83D00211D206801F05AFA012084F8B0
:100FE000460084F83E0084F83F0084F8400084F80E
:100FF000410084F8420084F8430084F8440084F8F7
:10100000450084F83D00002010BD000008B50068D0
:101010000B49884212D10B48C16941F00401C161FA
:10102000C069002200F00400009011461E20FFF766
:10103000CDFCBDE808401E20FFF7BABC08BD00008B
:10104000000800400010024090F83D10012901D036
:1010500001207047022180F83D100168CA6842F003
:101060000102CA6000680E4988420ED00D498842CC
:101070000BD0B0F1804F08D00B49884205D00B4906
:10108000884202D00A49884204D1816801F00701F0
:10109000062903D0016841F001010160002070477A
:1010A000002C0140003401400004004000080040D2
:1010B000000C004070B5044690F83C000025012863
:1010C00017D0012684F83C60022084F83D00206897
:1010D000826822F0770222F47F42826008685028FA
:1010E00038D00DDC20284FD005DC90B3102811D16A
:1010F0004AE0022070BD302846D040280AD13BE0AB
:1011000060282FD070280DD0B0F5805F03D0B0F5E7
:10111000005F12D0012584F83D60002084F83C0077
:10112000284670BDCB68D1E90121206801F00BFA97
:101130002068816841F0770109E0CB68D1E901219D
:10114000206801F000FA2068816841F480418160E4
:10115000E1E719E0CA684968206801F0C9FA50213E
:10116000206806E0CA684968206801F0D2FA602168
:10117000206801F0F2F9CEE7CA684968206801F0FA
:10118000B7FA40212068F4E7226801461046F0E7EC
:101190002DE9F0410D46040003D094F83D0018B14C
:1011A00008E00120BDE8F081002084F83C002046E2
:1011B00000F040F8022084F83D002068816844F285
:1011C000070291438160211D206801F061F92268C6
:1011D00090689169166A2B68AF69034340F2033047
:1011E000814341EA0721A868EF6908434FF6FC41B3
:1011F0008843E96840EA0720014328692F6A000113
:1012000040EA0730084369686D6926F0220646EA1D
:101210000515294393602268906154F8460B0162DA
:10122000012004F81F09E0752076E0762077A0758C
:101230000020B7E700B585B000210091019102912F
:1012400003911A4B02681A48C0219A4213D1C2690D
:1012500042F00202C261C26902F002020492826993
:1012600042F0040282618069009100F00400049061
:101270006946104815E0104B9A4214D1826942F435
:1012800000528261826902F400520492826942F043
:10129000100282618069009100F01000049069469C
:1012A0000648FFF78FF805B000BD000000040040BD
:1012B00000100240000801400034014000100140CD
:1012C00070B590F83E60044690F83F5090F8423078
:1012D00090F84320022021B104290ED0012E1BD109
:1012E00014E0012E18D1012B16D184F83E0084F8A9
:1012F000420001220021206820E0012D0CD1012AAA
:101300000AD184F83F0084F8430014E0012D03D192
:10131000012B01D1012A01D0012070BD84F83E00CB
:1013200084F83F0084F8420084F843000122002141
:10133000206801F0FBF801220421206801F0F6F892
:101340002068016841F001010160002070BD704714
:101350002DE9F04104460068C66805694FF00007B2
:10136000A90713D5B10711D5F91E01610120207716
:10137000206880698007204602D0FFF7E8FF04E07C
:1013800000F0A2F8204600F045F92777680716D547
:10139000700714D521686FF00400086102202077DF
:1013A0002068806910F4407F204602D0FFF7CFFF0D
:1013B00004E000F089F8204600F02CF92777280790
:1013C00015D5300713D521686FF008000861042097
:1013D00020772068C0698007204602D0FFF7B7FF5A
:1013E00004E000F071F8204600F014F92777E806D1
:1013F00016D5F00614D521686FF01000086108209A
:1014000020772068C06910F4407F204602D0FFF7A3
:101410009EFF04E000F058F8204600F0FBF8277724
:10142000E80708D0F00706D021686FF001000861D6
:10143000204600F04BF9280608D5300606D521686D
:101440006FF0800008612046FFF772FD680608D53E
:10145000700606D521686FF040000861204600F054
:1014600055F9A8060AD5B00608D521686FF0200006
:1014700008612046BDE8F041FFF75BBDBDE8F081A3
:1014800000B585B00021009101910291039100689F
:10149000B0F1804F11D10A48816941F004018161A6
:1014A0008069694600F00400049006200090022044
:1014B000019003900348FEF785FF05B000BD0000D2
:1014C0000010024000080140704770B5044690F8D3
:1014D0003C0000260D4601280FD0012084F83C0076
:1014E0006AB1042A1DD0082A2FD00C2A3FD0012629
:1014F000002084F83C00304670BD022070BD20689A
:1015000001F034F82068816941F0080181612068A8
:10151000816921F004018161206881692A69114390
:1015200011E0206801F052F82068816941F40061FF
:1015300081612068816921F480618161206881690D
:101540002A6941EA02218161D2E7206801F074F83A
:101550002068C16941F00801C1612068C16921F0BA
:101560000401C1612068C1692A69114311E0206842
:1015700001F096F82068C16941F40061C1612068FA
:10158000C16921F48061C1612068C1692A6941EAA9
:101590000221C161ACE710B5040003D094F83D000E
:1015A00010B107E0012010BD002084F83C00204667
:1015B00000F01EF8022084F83D00211D206800F094
:1015C00067FF012084F8460084F83E0084F83F005D
:1015D00084F8400084F8410084F8420084F8430015
:1015E00084F8440084F8450084F83D00002010BDD4
:1015F00008B50068B0F1804F08D10548C16941F0D5
:101600000101C161C06900F00100009008BD000047
:10161000001002407047000010B50446022249B194
:1016200004290ED0082913D094F84100012816D0BF
:10163000012010BD94F83E000128F9D184F83E2025
:101640000FE094F83F000128F2D184F83F2008E031
:1016500094F840000128EBD184F8402001E084F8A0
:1016600041200122206800F061FF13492068134ADD
:10167000884201D0904203D1436C43F40043436459
:10168000206888420DD090420BD0B0F1804F08D036
:101690000B49884205D00B49884202D00A4988424A
:1016A00004D1816801F00701062903D0016841F0E7
:1016B00001010160002010BD002C014000340140F8
:1016C0000004004000080040000C004070B50D4CC4
:1016D0000546A078012802D101F02EF860700A4971
:1016E000286888420DD1E068401CE060502808D18D
:1016F0000020E06001F064FB4042E08001F078FBF4
:10170000208170BD00000020000800407047704735
:1017100070470000F8B5016804460868CA684B695C
:1017200010F00F0F4FF0000559D003F0010602F43E
:101730009077374365D0C10705D0D10503D5616CDB
:1017400041F001016164410705D5D90703D0616CFF
:1017500041F002016164810705D5D90703D0616CAE
:1017600041F004016164010707D502F02001314313
:1017700003D0616C41F008016164616C00293AD0CA
:10178000800604D5900602D5204601F010F92068A5
:101790004069616CC0F38010090700D460B3204633
:1017A00001F0DEF820684069400621D52068143039
:1017B00050E8001F21F0400140E80012002AF5D156
:1017C000E06BA8B16D494163E06BFEF751FD002865
:1017D00011D0E06B416B01B0BDE8F04008478306D3
:1017E0000FD593060DD52046BDE8F84001F0DFB8CF
:1017F0002046FFF78DFFF8BD2046FFF789FF65649F
:10180000F8BD266B2023012E7CD1C6067AD5D606DC
:1018100078D508684868009048694FF0020640068D
:1018200040D5E16B086840680004000CE8D0A28D48
:101830008242E5D9E085886920282DD020680C30C7
:1018400050E8001F21F4807140E80012002AF5D111
:101850002068143050E8001F21F0010140E8001218
:10186000002AF5D12068143050E8001F21F0400113
:1018700040E80012002AF5D184F842302563206840
:101880000C3050E8001F21F0100140E80012002A3F
:10189000F5D1E06BFEF7C8FC6663A08DE18D401AC0
:1018A00081B22AE0A08DE18D401A81B2E08D00283E
:1018B000A6D00029A4D022680C3252E8000F20F4F0
:1018C000907042E80007002FF5D12068143050E8EE
:1018D000002F22F0010240E80027002FF5D184F804
:1018E0004230256320680C3050E8002F22F01002AF
:1018F00040E80023002BF5D166632046FFF707FF81
:10190000F8BDFFE705062BD5150629D594F841004B
:101910002128F5D1A068B0F5805F01D12069B0B170
:10192000206A411C2162216800784860E08C401EDA
:101930000004000CE084E3D12068C16821F080013C
:10194000C1602068C16841F04001C160D8E7206AE9
:101950000088C0F308004860206A801C2062E5E728
:101960004006CDD55006CBD5CA68204622F04002AD
:10197000CA6084F8413000F01DF9C1E75129000820
:1019800070B5040004D094F84100002510B106E0C1
:10199000012070BD84F84050204600F023F8242038
:1019A00084F841002068C16821F40051C1602046DC
:1019B00001F05EF82068016921F49041016120681E
:1019C000416921F02A0141612068C16841F4005158
:1019D000C1606564202084F8410084F8420065639A
:1019E000002070BD30B585B00024009401940294AD
:1019F00003942F4D03682F4802210322AB4231D1BB
:101A0000C36943F48013C361C36903F4801304936F
:101A1000836943F010038361836903F01003049327
:101A2000836943F0200383618069039200F0200002
:101A30000490C802CDE9000169461F48FEF7C2FCC8
:101A40000420CDE9000469461C480294FEF7BAFC64
:101A5000002211463520FEF7B9FF3520FEF7A8FF1A
:101A600005B030BD164DAB42FAD1836943F48043D3
:101A70008361836903F480430493836943F004031F
:101A800083618069039200F0040004906815CDE939
:101A900000010C4D69462846FEF794FC2815CDE957
:101AA0000004694628460294FEF78CFCD8E7000043
:101AB000005000400010024000100140001401409E
:101AC000003801400008014090F84230202B01D03E
:101AD0000220704721B11AB10023036301F024B83A
:101AE000012070470068084988420CD107480078F7
:101AF0000D2803D00A2801D00449C87001220349E7
:101B00000348FFF7E1BF704700500040000000208D
:101B1000980100202DE9F843044690F841009846CA
:101B200016460D46202802D00220BDE8F88385B174
:101B30007EB100206064212084F84100FEF748FD5A
:101B4000A6848146E684A0682027B0F5805F02D095
:101B500003E00120E9E7206910B12E4600250EE0E0
:101B600000260CE08021204600F0F9FFA8B9C6B19C
:101B700016F8010B21684860E08C401EE084E08C80
:101B80004B464FF00002CDF800800028EAD14FF01C
:101B90004001204600F0E3FF40B184F8417003208B
:101BA000C3E735F8020BC0F30800E3E784F841709F
:101BB0000020BAE77047FEE701684A69D243520540
:101BC0000FD46FF480624A61002140F8301F202258
:101BD00042738173026942F00402026101730120C1
:101BE0007047002070470000F8B50446C06A1E46E2
:101BF0000D461746082807D0012805D010F5803F6C
:101C000002D0206B122804D12068016841F4807151
:101C10000160134600224FF001112046009600F0AB
:101C20005DF840B120680068C00502D54FF400702F
:101C300020640320F8BD2069B0F5804F0ED0062047
:101C4000216800EAD51040F0F000086133463A46BA
:101C50000B49204600F08AF878B902E005F0FE0052
:101C600000E0E8B221680861054933463A46891F19
:101C7000204600F07BF80028DCD00120F8BD0000F1
:101C80000800010070B516460D4604461EE02046C9
:101C9000FFF792FF08B1012070BD681C16D0FEF757
:101CA00097FC801BA84200D885B920684069C043D2
:101CB00040070BD5002044F8300F20216173A0733A
:101CC000216941F0200121612073E4E72068406927
:101CD000C0434007DBD4002070BD00002DE9F04771
:101CE000984617460D460446C1F30746DDF8209096
:101CF0002AE000BFB8F1FF3F26D0FEF769FCA0EB59
:101D00000901414502D8B8F1000F1DD12068012E0C
:101D100016D0806925EA00000004000C12D00020D3
:101D2000B84211D1002044F8300F20216173A07314
:101D3000216941F02001216120730120BDE8F08775
:101D40004069E7E70120EBE72068012E0AD08069AF
:101D500025EA00000004000C06D00020B842C9D0DB
:101D60000020EBE74069F3E70120F7E72DE9F047B2
:101D7000984616460D4604464FF000094FF0200ADB
:101D8000C1F3074723E020684069C043400515D4EC
:101D90002068016841F40071016021686FF480607F
:101DA0004861C4F8309084F83DA084F83E90216CDE
:101DB00041F00401216484F83C9021E0701C06D0BD
:101DC000FEF706FCA0EB0800B04203D816B1012FC5
:101DD0001FD021E02068012F15D0806925EA00007E
:101DE0000004000C18D000BF44F8309F84F80DA008
:101DF00084F80E90216941F02001216184F80C9053
:101E00000120BDE8F087406925EA00000004000CCD
:101E1000EAD12068406901E02068806925EA000075
:101E20000004000CAFD1ECE770B516460D46044631
:101E30001EE02046FFF7C0FE08B1012070BD681CFF
:101E400016D0FEF7C5FB801BA84200D885B92068D4
:101E50004069C04300060BD5002044F8300F202114
:101E60006173A073216941F0200121612073E4E7CF
:101E700020684069C0430006DBD4002070BD00002C
:101E80002DE9F04385B00024304800940194029479
:101E90000394816941F010018161816901F01001B1
:101EA0000491816941F020018161816901F0200183
:101EB0000491816941F004018161816901F00401AB
:101EC0000491816941F0080181618069DFF88080B7
:101ED00000F008000490002230214046FEF773FB1A
:101EE000DFF870904CF20107002239464846FEF7B1
:101EF0006AFB42F20F40CDE900046946164802949D
:101F0000FEF760FA01260225009669464046CDE9B3
:101F10000145FEF757FA3020CDE9000669464046F4
:101F2000CDE90245FEF74EFACDE90076694648460E
:101F3000CDE90245FEF746FA38208DE831006946C2
:101F40004846FEF73FFA05B0BDE8F08300100240B6
:101F500000080140000C0140001001400D4810B580
:101F60000B4901600C49416000214FF480428160BF
:101F7000C0E9031241618161C1610162FEF72EFB7C
:101F8000002803D0BDE81040FEF73FB910BD0000A7
:101F90000054004024000020A086010010B58AB043
:101FA000002407941C2168460894FEF7E4F81A48B8
:101FB0004FF0804101604721C0E9011442F20F71E6
:101FC000C0E9031480218161FFF7E5FA08B1FEF74B
:101FD0001CF9079407A910480894FEF7ABFF08B155
:101FE000FEF713F96020CDE900040294042269464B
:101FF00009480494FFF769FA08B1FEF706F90822C8
:1020000069460548FFF761FA08B1FEF7FEF8024895
:10201000FFF736FA0AB010BD7800002010B58CB07A
:1020200024216846FEF7A7F80024164809941449AD
:102030000A9401600321C0E901144FF6FF72C0E960
:1020400003248022826100910120CDE901400394A4
:102050000494CDE90540079469460A480894FFF7BF
:1020600097F808B1FEF7D1F8099409A905480A9430
:10207000FEF760FF002801D0FEF7C7F80CB010BDD6
:1020800000040040C000002010B586B000241748AE
:1020900000940194029403940494134905940160FC
:1020A00041F61F41C0E901140921C0E90314802150
:1020B0008161FEF77DFF08B1FEF7A7F84FF480506D
:1020C000009069460948FEF7F5FF08B1FEF79DF854
:1020D000049404A905480594FEF72CFF002801D0BC
:1020E000FEF793F806B010BD00080040080100207C
:1020F00010B58CB024216846FEF73DF8002417483F
:10210000099415490A9401600321C0E901144FF6AE
:10211000FF72C0E903248022C0E90542009101203A
:10212000CDE9014003940494CDE905400794694644
:102130000A480894FFF72CF808B1FEF766F80994EE
:1021400009A906480A94FEF7F5FE002801D0FEF71B
:102150005CF80CB010BD00000034014050010020BC
:102160000C4810B50A4901604FF4E131416000218B
:1021700081600C22C160C0E904128161C161FFF776
:10218000FFFB002803D0BDE81040FEF73EB810BDAD
:1021900000500040980100200C4810B50A49016029
:1021A0004FF4E1314160002181600C22C160C0E93F
:1021B00004128161C161FFF7E3FB002803D0BDE891
:1021C0001040FEF722B810BD00380140E0010020A9
:1021D000FEE7FEE770B5002404F1B000C0B200F0E5
:1021E000EBF8002000F0E8F8102000F0E5F80025FA
:1021F000002000F0F1F86D1CEDB2802DF8D3641CC6
:10220000E4B2082CE8D370BD10B56420FEF7C8F81E
:10221000AE2000F0D1F8D52000F0CEF8802000F0FC
:10222000CBF8A82000F0C8F83F2000F0C5F8D32074
:1022300000F0C2F8002000F0BFF8402000F0BCF829
:102240008D2000F0B9F8142000F0B6F8202000F03E
:10225000B3F8022000F0B0F8A12000F0ADF8C820DB
:1022600000F0AAF8DA2000F0A7F8122000F0A4F895
:10227000812000F0A1F8CF2000F09EF8D92000F0D6
:102280009BF8F12000F098F8DB2000F095F8302062
:1022900000F092F8A42000F08FF8A62000F08CF84F
:1022A000AF2000F089F8BDE81040FFF793BF10B5EC
:1022B0000446B031C8B200F07FF804F00F0000F01F
:1022C0007BF8102040EA1410BDE8104000F074B80C
:1022D0002DE9F04115460E460746092A19D8FFF7A1
:1022E000E6FF0D48002400EB0515285D00F074F8AA
:1022F000641CE4B2082CF8D3761CF1B23846FFF720
:10230000D6FF0824285D00F067F8641CE4B2102CA6
:10231000F8D3BDE8F0810000E83100082DE9F04174
:1023200005461400884600D5544242F21076B44265
:1023300005DB94FBF6F0C2B22846FFF7C9FF4FF465
:102340007A77BC420CDB94FBF6F006FB104090FB66
:10235000F7F0C2B205F10800C0B24146FFF7B8FF7E
:102360006426642C0CDB94FBF7F007FB104090FB19
:10237000F6F0C2B205F11000C0B24146FFF7A8FF67
:102380000A270A2C0CDB94FBF6F006FB104090FBAE
:10239000F7F0C2B205F11800C0B24146FFF798FF4E
:1023A00094FBF7F007FB1040C2B22035E8B241467B
:1023B000BDE8F041FFF78CBF1CB5002101918DF8FD
:1023C000050064200090022301AA78210148FEF74D
:1023D000C9F91CBD240000201CB507A1022309680F
:1023E00001918DF805006420009001AA782103482E
:1023F000FEF7B8F91CBD00004000000024000020DA
:102400007047704710B50021084600F0C3FE012157
:10241000002000F0BFFEBDE81040C820FDF7C0BF9F
:10242000FEF76EBA30B58FB028216846FDF7A3FEDF
:1024300014210AA8FDF79FFE01210804CDE9001030
:102440000024029402250491CDE907504FF4E010D6
:1024500009906846FEF7C8FB08B172B6FEE70F2088
:10246000CDE90A054FF48060CDE90C4002210AA8AD
:102470000E94FEF7DDFA002801D072B6FEE70FB029
:1024800030BD70470148FEF763BF0000080100201F
:10249000F0B50268204C214D214E224F224B4FF0C7
:1024A000804CA04209D0984207D0604505D0A84290
:1024B00003D0B04201D0B84204D122F0700E4A6875
:1024C00042EA0E02A04209D0984207D0604505D0EA
:1024D000A84203D0B04201D0B84203D122F44075E3
:1024E000CA682A434D6922F080022A4302608A6842
:1024F000C2620A688262A04201D0984201D1096991
:102500000163012141610169C90703D0016921F01B
:1025100001010161F0BD0000002C014000040040F9
:1025200000080040000C00400034014010B501F0EC
:102530001F030121046A99408C430462016A9A4096
:102540001143016210BD10B5846842EA032224F4ED
:102550007F440A432243826010BD826822F07002E9
:102560000A4342F00701816070470000F0B5036A3A
:10257000026A22F00102026242688469124E24F06B
:1025800073050C682C4323F002058B682B430D4D1B
:10259000A84201D0B04205D123F00807CB683B43E5
:1025A00023F00403A84201D0B04205D14D6922F4C2
:1025B000407215438A692A434260846149684163D5
:1025C0000362F0BD002C014000340140F0B5026A06
:1025D000036A23F010030362436884690D6824F4DE
:1025E000E64444EA05248D6822F0200242EA0512FE
:1025F0000F4D104EA84201D0B04206D1CF6822F054
:10260000800242EA071222F04002A84201D0B04202
:1026100007D14D6923F4406343EA85038D6943EA9A
:10262000850343608461496881630262F0BD0000F4
:10263000002C014000340140F0B5026A036A23F423
:10264000807303624368C46922F4007224F0730546
:102650000C68124E2C438D6842EA05220E4DA842AA
:1026600001D0B04206D1CF6822F4006242EA0722CC
:1026700022F48062A84201D0B04207D14D6923F410
:10268000405343EA05138D6943EA05134360C4616F
:102690004968C1630262F0BD002C01400034014072
:1026A00030B5046A026A22F4805202624268C36949
:1026B0000D6823F4E64343EA05238D6824F40054AF
:1026C00044EA0534084DA84202D0084DA84204D17E
:1026D0004D6922F4804242EA85124260C361496832
:1026E0000164046230BD0000002C01400034014050
:1026F00010B5036A046A24F001040462846924F0BA
:10270000F00444EA021423F00A020A4384610262DC
:1027100010BD10B5036A046A24F0100404628469D1
:1027200023F0A00324F4704444EA023243EA011186
:102730008261016210BD00002DE9F047584C022172
:102740002046FDF73BFF27154FF4005901281DD106
:1027500039462046FDF732FF012817D108212046CF
:10276000FDF72CFF012811D149462046FDF726FF31
:1027700001280BD101212046FDF720FF012805D1BA
:1027800004212046FDF71AFF012819D00221204616
:10279000FDF714FF01280BD108212046FDF70EFF9D
:1027A000012805D101212046FDF708FF012806D0A8
:1027B00039462046FDF702FF012803D00EE0022033
:1027C000BDE8F08749462046FDF7F8FE012805D10F
:1027D00004212046FDF7F2FE012831D002212046D7
:1027E000FDF7ECFE6FF013056FF00E08012829D0FD
:1027F00008212046FDF7E2FE6E10012828D0394658
:102800002046FDF7DBFE012825D049462046FDF78E
:10281000D5FE012822D001212046FDF7CFFE6FF022
:102820001D06012821D004212046FDF7C7FE0128FE
:1028300022D002212046FDF7C1FE012826D023E048
:102840000320BDE70021284600F0A4FC012111E08F
:102850000021284612E00021404601E000213046D8
:1028600000F098FC012128460CE00021304600F0E1
:1028700091FC0021404605E00021404600F08AFC22
:102880000121304600F086FC002099E739462046B9
:10289000FDF794FE0128F7D100212846E0E700006B
:1028A0000010014010B5FDF7B2FCC820FDF778FD1F
:1028B000FFF7A8FD00216FF00E0000F06BFC012176
:1028C0000F2000F067FC40F2A460FDF769FDFFF700
:1028D00099FDBDE810404FF47A70FDF761BD10B569
:1028E000FDF795FCC820FDF75BFDFFF78BFD002190
:1028F0006FF01D0000F04EFC0121142000F04AFC96
:102900004FF4FA70FDF74CFDBDE81040FFF77ABDBB
:1029100010B5FDF77CFCC820FDF742FDFFF772FD06
:102920000021142000F036FC01216FF01D0000F0A2
:1029300031FC4FF4FA70FDF733FDBDE81040FFF7AE
:1029400061BD00000148FEF7E5BE000098010020CF
:1029500010B5406A0021C185C184FEF7D9FE10BDC3
:1029600001680C3151E8002F22F4907241E80023F5
:10297000002BF5D10168143151E8002F22F001023B
:1029800041E80023002BF5D1016B012909D1016831
:102990000C3151E8002F22F0100241E80023002BF7
:1029A000F5D1202180F8421000210163704708B55D
:1029B00090F84210222901D0022008BD82684FF40D
:1029C00080539A4201D1016921B1816A9A421BD098
:1029D0004AB10AE00268816A5268C2F308020A80BA
:1029E000816A891C08E0026972B10268526802F0CB
:1029F0007F020A70816A491C8162C18D491E0904E7
:102A0000090CC18503D01BE002685268F1E7016838
:102A1000CA6822F02002CA600168CA6822F4807283
:102A2000CA6001684A6922F001024A61202180F8E7
:102A3000421000214163026B012A03D0FFF752F8D4
:102A4000002008BD016301680C3151E8002F22F01D
:102A5000100241E80023002BF5D101680A68D20674
:102A600002D50A6849680091818DFEF750FEE7E7BC
:102A700070B5044600680169E26821F440511143D1
:102A800001612169A0680843616908432168CA6837
:102A900041F20C639A430243CA6020684169A2690B
:102AA00021F44071114341611E492068884202D1DE
:102AB000FEF764F801E0FEF751F800EBC00101EB0E
:102AC0000012606864218000B2FBF0F3B3FBF1F305
:102AD0006FF018067343B2FBF0F5B2FBF0F605EBAE
:102AE0008305322303EB0515B5FBF1F5B6FBF1F6D3
:102AF00005F0F00505EB0615B2FBF0F6B2FBF0F0C1
:102B0000B0FBF1F06FF01802504306EB800003EBCE
:102B10000010B0FBF1F0216800F00F00284488603D
:102B200070BD00000038014081628285C2850021AD
:102B30004164222180F84210016921B10168CA680C
:102B400042F48072CA6001684A6942F001024A6137
:102B50000068C16841F02001C160002070472DE984
:102B6000F843984617460D460446089E24E0701C1C
:102B700022D0FDF72DFDA0EB0800B0421AD8CEB14F
:102B80002068C168490717D5802D15D0402D13D076
:102B90000168C94309070FD4016800254068009007
:102BA0002046FFF7DDFE0820606484F840500120D5
:102BB000BDE8F8830320FBE72068006835EA0000E1
:102BC00004D00020B842D2D00020F1E70120F9E77C
:102BD000FEE700000FB4054B10B503A9044A0298A4
:102BE00000F028F810BC5DF814FB0000A92D0008C7
:102BF000200000200907090E002804DB00F1E02076
:102C000080F80014704700F00F0000F1E02080F819
:102C1000141D704702E008C8121F08C1002AFAD12B
:102C200070477047002001E001C1121F002AFBD14C
:102C3000704700002DE9FF4F89B09B4604460025F0
:102C400006E025280BD05A460B999047641C6D1C52
:102C500020780028F5D10DB02846BDE8F08F002778
:102C6000B8460122474900E0074314F8013F203BE2
:102C700002FA03F00842F7D120782E2819D114F86F
:102C8000010F47F004072A280ED06FF02F0220789A
:102C9000A0F1300109290CD808EB880102EB4101B1
:102CA00000EB0108641CF2E70A98641C50F8048BDE
:102CB0000A9020780028CED0642808D0692806D051
:102CC00075281ED05A460B9990476D1C58E00A99FA
:102CD0004FF00A0901C90A91002802DA40422D2169
:102CE00002E0390504D52B218DF82010012103E0E5
:102CF000F90704D02021F7E78A4608AE0DE000214D
:102D0000FAE70A994FF00A0901C90A91F7E749461B
:102D1000FDF73CFA303106F8011D0028F7D1ADEB84
:102D2000060000F12009780701D44FF00108C845DA
:102D300002DDA8EB090000E000208046002706E045
:102D400008A85A46C05D0B9990476D1C7F1C5745DB
:102D5000F6DB04E030205A460B9990476D1CB8F121
:102D60000001A8F10108F5DC05E016F8010B5A4650
:102D70000B9990476D1CB9F10001A9F10109F4DC30
:102D8000641C65E70928010010B53C210448FEF7E2
:102D900097FABDE810403C210248FEF791BA0000C6
:102DA000C00000205001002013B54FF0FF33012276
:102DB00069460248FEF7AEFE00981CBDE001002007
:102DC0000A480168486A002200B24A6242F2107161
:102DD000884202DDA0EB410000B242F21071C8420D
:102DE00002DA4900084400B270470000C000002029
:102DF0000A480168486A002200B24A6242F2107131
:102E0000884202DDA0EB410000B242F21071C842DC
:102E100002DA4900084400B2704700005001002067
:102E200000263746B046B146FDF772FDFFF7FAFAC5
:102E3000FFF726F8FFF7B0F9FFF726F9FFF7AEF82E
:102E4000FFF7ECF8FFF754F9FFF78AF9FFF786F878
:102E5000AE48FEF7F9F80821AD48FEF7DDFB042186
:102E6000AB48FEF7D9FBFFF78FFF0122A949AA481B
:102E7000FEF72AFEFFF772F8FFF7C6F9A54C012509
:102E80004FF0000A4FF0510B0121A448FDF796FBCB
:102E90000128F9D1A5700121E2780846FFF73EFA32
:102EA000627804210120FFF739FA607801287DD18A
:102EB000E278302A02D0392A11D033E001210846C5
:102EC000FFF72CFAA5704FF4FA60FDF769FA84F861
:102ED00002A0FFF7E7FCA5706422E2701BE0B9F1E5
:102EE000010F03D0B9F1020F05D0F1E084F802A080
:102EF000FFF7F5FC03E084F802A0FFF709FD0021CD
:102F00006FF00E0000F046F900216FF00E0000F0A7
:102F100041F9A570E27801210846FFF7FFF96078D2
:102F2000012843D1E278312A06D0322A23D0332A2D
:102F300049D0342A58D070E001210846FFF7EEF955
:102F400084F802A0FFF7CBFC6FF00E090021484681
:102F500000F020F90021484600F01CF9A5704FF45C
:102F6000FA60FDF71DFA84F802A0FFF79BFC4FF012
:102F700001095A4625E001210846FFF7CFF984F8F8
:102F800002A0FFF7C5FC6FF00E090021484600F0D3
:102F900001F90021484600F0FDF8E278617860A070
:102FA000FFF718FEA5704FF4FA6000E04CE0FDF763
:102FB000F7F984F802A0FFF775FCA5704FF002093D
:102FC0005022E27022E084F802A0FFF788FCA5708E
:102FD00031263346E278617853A0FFF7FBFDC82025
:102FE000FDF7DEF9E27811E084F802A0FFF790FC2B
:102FF000A57031263346E27861784BA0FFF7EAFDF1
:10300000C820FDF7CDF984F803A0524601210846F7
:10301000FFF784F96078012816D1E078502802D0B3
:10302000512805D054E084F802A0FFF758FC03E0D3
:1030300084F802A0FFF76CFCA570012184F803A0BE
:1030400052460846FFF76AF96078022802D0032842
:103050001BD03DE0312E3BD1E078502802D02079C2
:10306000502835D1FDF7BCF884F802A0FFF737FCF3
:10307000C820FDF795F984F803B07F1CFFB2A57056
:103080004FF4FA70FDF78CF91DE0312E20D1E07875
:10309000512802D0207951281AD1FDF7A1F884F8DF
:1030A00002A0FFF735FCC820FDF77AF95020E07048
:1030B00008F1010000F0FF08A5704FF4FA70FDF769
:1030C0006FF984F804B00121E2780846FFF726F989
:1030D000012F11D0022F12D0B8F1020F0FD0E078DB
:1030E00064287FF4D7AEB9F1010F0CD0B9F1020F0B
:1030F000F7D184F803B0CDE6B8F1010FECD184F834
:1031000003A00026C6E65020E070C3E608010020B8
:1031100078000020000000209801002000080140F5
:1031200025642C25640D0A0025642C25642C256457
:103130000D0A000070B580B14FF48040134C45007B
:10314000E1B1014600222046FDF73DFA0122294661
:103150002046BDE87040FDF736BA0D4C39B100226B
:1031600010212046FDF72FFA01222021F0E701224D
:1031700010212046FDF727FA0022F6E7014601223A
:103180002046FDF720FA0022E1E70000000C014094
:103190000008014070B5642200FB02F64243114C66
:1031A000554241B1002816DB01210846FFF7C2FF56
:1031B0002068866370BD002806DB00210846FFF703
:1031C000B9FF2068C66370BD01210020FFF7B2FF80
:1031D0002068C56370BD00210120FFF7ABFF2068A8
:1031E000856370BD78000020007E4141417E000073
:1031F000007F4040407F00000004027F000000008C
:103200000040407F404000000072494949460000AC
:10321000007841404079000000494949497F000059
:103220000041414949760000000F0808087F00006E
:1032300000070404047F0000004F49494979000059
:1032400000714040404F0000007E4949494800005D
:10325000007F4040404F000000412111097F0000E5
:1032600000010204047F0000007E4949497E0000FD
:10327000007649494976000000464949497E0000E8
:1032800000414949497F0000010202030405060785
:1032900008090A0B0C0D0E0F1010000000000000B2
:1032A00000000102030406070809000000000102F3
:1032B00003040000D43200080000002024000000B5
:1032C000142C0008F8320008240000200406000036
:1032D000242C000800000000000000000000000096
:1032E00000000000010000001000000000000000CD
:0832F00000127A00000000004A
:0400000508000131BD
:00000001FF
