:020000040800F2
:10000000D8050020450100086F1B0008671800088C
:100010006D1B0008DD010008E5220008000000005B
:10002000000000000000000000000000731B00083A
:10003000DF01000800000000711B0008911B000890
:100040005F0100085F0100085F0100085F01000810
:100050005F0100085F0100085F0100085F01000800
:100060005F0100085F0100085F0100085F010008F0
:100070005F0100085F0100085F0100085F010008E0
:100080005F0100085F0100085F0100085F010008D0
:100090005F0100085F0100085F0100085F010008C0
:1000A0005F0100085F0100085F0100085F010008B0
:1000B0005F0100085F010008F51B00085F010008F0
:1000C0005F0100085F0100085F0100085F01000890
:1000D0005F0100085F0100085F0100085F01000880
:1000E0005F0100085F0100085F0100085F01000870
:1000F0005F0100085F0100085F0100085F01000860
:100100005F0100085F0100085F0100085F0100084F
:100110005F010008592000085F0100085F01000826
:100120005F0100085F0100085F0100085F0100082F
:10013000DFF80CD000F040F80048004735250008F3
:10014000D80500200648804706480047FEE7FEE73E
:10015000FEE7FEE7FEE7FEE7FEE7FEE7FEE7FEE777
:10016000F31B000831010008D2B201E000F8012BB6
:10017000491EFBD270470022F6E710B513460A4627
:1001800004461946FFF7F0FF204610BD30B50B4678
:10019000014600202022012409E021FA02F59D42B7
:1001A00005D303FA02F5491B04FA02F52844151E8B
:1001B000A2F10102F1DC30BD064C074D06E0E0681B
:1001C00040F0010394E8070098471034AC42F6D39E
:1001D000FFF7B2FF4028000860280008FEE77047DC
:1001E00072B6FEE710B56FF01D040021204602F044
:1001F000E7FA2046BDE81040012102F0E1BA10B54F
:1002000090F821100022022905D00421816380F892
:100210002020012010BD01680B6823F00E030B6045
:1002200001680B6823F001030B6090F84030C46B49
:10023000012101FA03F3636080F8211080F8202087
:10024000104610BD2DE9F05F90F82110002402291E
:1002500003D004218163012485E001680A6822F04B
:100260000E020A6001680A6822F001020A603F4E2D
:100270003E4FB215DFF8F4C0DFF8F090DFF8ECA0E5
:10028000DFF8E8B0DFF8E4E00168783F1301150219
:10029000ACF1640CA9F15009AAF13C0AABF1280BAE
:1002A000AEF1140E4FF48018B14227D9B9420ED0E6
:1002B000614512D049451DD0514518D0594518D037
:1002C000714501D1424615E0294EB14201D10122CA
:1002D00010E0274E1436B14201D110220AE0244E1C
:1002E0002836B14206D0224A3C32914201D11A4608
:1002F00000E02A461E49091F0A602BE0B94213D0CC
:10030000614517D0494522D051451DD059451DD0D2
:10031000714501D142461AE0B14202D14FF08072DC
:1003200015E0134EB14201D1012210E0104E1436F7
:10033000B14201D110220AE00D4E2836B14206D05A
:100340000B4A3C32914201D11A4600E02A46074945
:1003500080394A60012180F82110002180F82010A6
:10036000416B01B188472046BDE8F09F8000024004
:100370000804024070B5044600F014F90546601CFC
:1003800002D004480078044400F00CF9401BA0425D
:10039000FAD370BD100000202DE9F84FDFF8C891A6
:1003A0000024A9F1040B23460F2709F1040AABF13D
:1003B000040ED1E00125A54006EA0502AA4276D145
:1003C000DFF8A8C14E68A6EB0C0866452BD00DDC03
:1003D000032E34D005DC36B3012E19D0022E2FD1D6
:1003E0001BE0112E16D0122E2AD119E0B8F5881F65
:1003F00019D006DCB8F5803F15D0B8F5801F1FD1A5
:1004000011E0B8F5001F0ED0B8F5041F18D10AE0AE
:10041000CB6815E0CB681B1D12E0CB6808330FE0FA
:10042000CB680C330CE08B682BB1012B4FF0080329
:1004300003D0456104E0042302E0056100E00023ED
:10044000FF2A01D8064601E000F104064FEA8405C0
:1004500001D9A5F12005D6F8008007FA05FC28EAA5
:100460000C0803FA05F548EA0508C6F800804D684F
:10047000ED0070D53E4DAE6946F00106AE61AD6946
:1004800024F0030605F0010500953A4D06EB050C36
:10049000DCF80850A607360F07FA06F825EA080523
:1004A000DFF8D480404503D14FF0000825E052E04A
:1004B000DFF8C880404502D14FF001081DE0DFF8A9
:1004C000C080404502D14FF0020816E0DFF8B4804A
:1004D000404502D14FF003080FE0DFF8AC80404503
:1004E00002D14FF0040808E0DFF8A080404502D1B7
:1004F0004FF0050801E04FF0060808FA06F848EA50
:100500000508CCF808804D68D9F80060ED024D462A
:1005100001D5164300E096432E604D68DAF800607E
:10052000AD02554601D5164300E096432E604D6856
:10053000DBF80060AD035D4601D5164300E096434D
:100540002E604D68DEF80060ED03754601D5164358
:1005500000E096432E60641C0A681646E2407FF471
:1005600029AFBDE8F88F0000080401400000111019
:10057000001002400000014000080140000C014052
:10058000001001400014014000180140001C01400F
:100590008068084000D0012070470AB101617047AF
:1005A0000904FBE701488068704700001000002044
:1005B0000248816802781144816070471000002071
:1005C000074810B5016841F010010160032000F0F8
:1005D00075F80F2000F006F800F024F8002010BD98
:1005E0000020024070B50D4D04464FF47A71287812
:1005F000B1FBF0F00A490968B1FBF0F000F0DCFA59
:1006000048B9102C07D200222146501E00F036F8BF
:1006100000206C6070BD012070BD00001000002043
:100620001C0000200C4808B5816941F0010181617E
:10063000816901F001010091C16941F08051C161FE
:10064000C06900F0805000900448416821F0E061EA
:1006500041F00071416008BD0010024000000140FF
:10066000002809DB00F01F020121914040098000B1
:1006700000F1E020C0F8001170470000F0B40E4B0C
:100680001B680C46C3F30223C3F10705042D00D9F0
:100690000425191D072901D2002300E0DB1E0126D5
:1006A00006FA05F1491E214099409E40761E1640EB
:1006B0003143F0BC01F028BE0CED00E0064900F02B
:1006C000070208684FF6FF03184040EA0220034A79
:1006D00010430860704700000CED00E00000FA05D0
:1006E0002DE9F0470F46050061D0434E306800F019
:1006F0000700B84209D2306820F007003843306064
:10070000306800F00700B84251D128683B4C81079F
:1007100012D5400703D5606840F4E0606060287837
:10072000000703D5606840F4605060606068A968A5
:1007300020F0F000084360602878C00728D068687F
:10074000012810D02168022810D0890700292EDA4C
:10075000616821F0030101436160FFF723FF8046D8
:1007600041F288390DE021688903EFE78901EDE75F
:10077000FFF718FFA0EB0801494502D90320BDE8A7
:10078000F0876068696800F00C00B0EB810FEFD172
:10079000306800F00700B8420BD9306820F007003D
:1007A00038433060306800F00700B84201D00120C3
:1007B000E5E72878400705D56068E96820F4E0603F
:1007C000084360602878000706D56068296920F42E
:1007D000605040EAC100606000F038F86168084A83
:1007E000C1F30311515CC84006490860064800681F
:1007F000FFF7F8FE0020C2E7002002400010024090
:10080000262800081C000020140000200448054988
:1008100000684968044AC1F30221515CC84070472E
:100820001C0000200010024036280008044805493A
:1008300000684968044AC1F3C221515CC84070474E
:100840001C00002000100240362800080E4A5168A3
:100850000E4801F00C03042B11D0082B0FD10C48CB
:10086000C1F38343C903C05C0AD55168084AC1F388
:100870004041921E515C054A5043B0FBF1F0704775
:1008800004494843704700000010024000127A00FB
:100890001628000800093D002DE9F84F040070D02B
:1008A0002078C04DC00749D06868C0F38100012896
:1008B00007D06868C0F38100022809D16868C003C6
:1008C00006D52868800339D560680028E7D035E070
:1008D0006068B0F5803F0BD010B1B0F5A02F11D0FB
:1008E000286820F480302860286820F4802002E006
:1008F000286840F480302860606890B1FFF752FEAD
:1009000006460AE0286840F480202860F0E700BF2F
:10091000FFF748FE801B642873D828688003F7D54A
:100920000CE0FFF73FFE064605E000BFFFF73AFE8A
:10093000801B6428F0D828688003F7D420789A4E6A
:1009400080074FF001094FF0000839D5686810F0B2
:100950000C0F07D06868C0F38100022809D16868CD
:10096000C00306D42868800714D52069012808D15F
:1009700010E02069B0B1C6F80090FFF713FE0746FB
:1009800005E00AE1FFF70EFEC01B0228C4D8286864
:100990008007F7D52868616920F0F80040EAC100B7
:1009A00028600DE0C6F80080FFF7FCFD074604E074
:1009B000FFF7F8FDC01B022823D828688007F7D46A
:1009C000207800072CD57948A169D9B1C0F80090EA
:1009D000FFF7E8FD074604E0FFF7E4FDC01B02282F
:1009E0000FD8686A8007F7D571484FF4FA5100684C
:1009F000B0FBF1F0009000BF0098411E0091FAD2C8
:100A00000EE080E0C0F80080FFF7CCFD074604E070
:100A1000FFF7C8FDC01B022875D8686A8007F7D4A5
:100A20002078400760D5E8690027C00008D4E8694D
:100A300040F08050E861E869012700F080500090A4
:100A40005C480168C90513D40168834641F480718C
:100A50000160FFF7A7FD824606E000BFFFF7A2FD99
:100A6000A0EB0A0064284ED8DBF80000C005F5D5DD
:100A7000E06801280AD008B1052813D0286A20F0C0
:100A800001002862286A20F0040002E0286A40F091
:100A900001002862E06841F2883B98B1FFF782FDCF
:100AA00082460BE0286A40F004002862EEE700BFAF
:100AB000FFF778FDA0EB0A0159455AD8286A80074C
:100AC000F6D50CE0FFF76EFD824605E0FFF76AFD04
:100AD000A0EB0A0159454CD8286A8007F6D41FB10B
:100AE000E86920F08050E861E06988B36968C1F383
:100AF0008101022944D00228C6F8608004D0FFF7A3
:100B000051FD044638E034E0FFF74CFD074604E0B1
:100B1000FFF748FDC01B02282BD828688001F7D4B6
:100B2000206AB0F5803F05D16868A16820F40030E4
:100B300008436860D4E908010843696821F4741126
:100B400008436860C6F86090FFF72CFD044606E095
:100B500025E000BFFFF726FD001B022809D8286802
:100B60008001F7D51BE000BFFFF71CFD001B02282A
:100B700002D90320BDE8F88F28688001F4D40EE084
:100B80000128F7D06868226A00F48031914204D1CC
:100B9000616A00F47010884201D00120EAE7002069
:100BA000E8E7000000100240000042428004424298
:100BB0001C0000200070004010B5401EB0F1807F86
:100BC00001D3012010BD4FF0E02460610F216017B8
:100BD00001F09AFB0020A06107202061002010BDD9
:100BE0007047704770B590F83C20012A2CD0012442
:100BF00080F83C40022280F83D2003685A689D68D6
:100C000022F070060A6832435A60104B02689A421A
:100C10000ED00F4B9A420BD0B2F1804F08D00D4B43
:100C20009A4205D00C4B9A4202D00C4B9A4204D106
:100C3000496825F080031943916080F83D40002108
:100C400080F83C10084670BD022070BD002C0140A9
:100C5000003401400004004000080040000C004047
:100C600010B5040003D094F83D0010B107E0012056
:100C700010BD002084F83C00204600F01FF8022040
:100C800084F83D00211D206800F0BAFF012084F89F
:100C9000460084F83E0084F83F0084F8400084F861
:100CA000410084F8420084F8430084F8440084F84A
:100CB000450084F83D00002010BD000008B5006824
:100CC0000B49884212D10B48C16941F00401C1614E
:100CD000C069002200F00400009011461E20FFF7BA
:100CE000CDFCBDE808401E20FFF7BABC08BD0000DF
:100CF000000800400010024090F83D10012901D08A
:100D000001207047022180F83D100168CA6842F056
:100D10000102CA6000680E4988420ED00D4988421F
:100D20000BD0B0F1804F08D00B49884205D00B4959
:100D3000884202D00A49884204D1816801F0070143
:100D4000062903D0016841F00101016000207047CD
:100D5000002C014000340140000400400008004025
:100D6000000C004070B5044690F83C0000250128B6
:100D700017D0012684F83C60022084F83D002068EA
:100D8000826822F0770222F47F428260086850284D
:100D900038D00DDC20284FD005DC90B3102811D1BD
:100DA0004AE0022070BD302846D040280AD13BE0FE
:100DB00060282FD070280DD0B0F5805F03D0B0F53B
:100DC000005F12D0012584F83D60002084F83C00CB
:100DD000284670BDCB68D1E90121206800F06BFF87
:100DE0002068816841F0770109E0CB68D1E90121F1
:100DF000206800F060FF2068816841F480418160D4
:100E0000E1E719E0CA684968206801F029F8502133
:100E1000206806E0CA684968206801F032F860215D
:100E2000206800F052FFCEE7CA684968206801F0E8
:100E300017F840212068F4E7226801461046F0E7E1
:100E40002DE9F0410D46040003D094F83D0018B19F
:100E500008E00120BDE8F081002084F83C00204635
:100E600000F040F8022084F83D002068816844F2D8
:100E7000070291438160211D206800F0C1FE2268B5
:100E800090689169166A2B68AF69034340F203309A
:100E9000814341EA0721A868EF6908434FF6FC4106
:100EA0008843E96840EA0720014328692F6A000166
:100EB00040EA0730084369686D6926F0220646EA71
:100EC0000515294393602268906154F8460B01622E
:100ED000012004F81F09E0752076E0762077A075E0
:100EE0000020B7E700B585B0002100910191029183
:100EF00003911A4B02681A48C0219A4213D1C26961
:100F000042F00202C261C26902F0020204928269E6
:100F100042F0040282618069009100F004000490B4
:100F20006946104815E0104B9A4214D1826942F488
:100F300000528261826902F400520492826942F096
:100F4000100282618069009100F0100004906946EF
:100F50000648FFF721FA05B000BD0000000400407C
:100F60000010024000080140003401400010014020
:100F700070B590F83E60044690F83F5090F84230CB
:100F800090F84320022021B104290ED0012E1BD15C
:100F900014E0012E18D1012B16D184F83E0084F8FC
:100FA000420001220021206820E0012D0CD1012AFD
:100FB0000AD184F83F0084F8430014E0012D03D1E6
:100FC000012B01D1012A01D0012070BD84F83E001F
:100FD00084F83F0084F8420084F843000122002195
:100FE000206800F05BFE01220421206800F056FE1C
:100FF0002068016841F001010160002070BD704768
:101000002DE9F04104460068C66805694FF0000705
:10101000A90713D5B10711D5F91E01610120207769
:10102000206880698007204602D0FFF7E8FF04E0CF
:1010300000F0A2F8204600F045F92777680716D59A
:10104000700714D521686FF0040008610220207732
:101050002068806910F4407F204602D0FFF7CFFF60
:1010600004E000F089F8204600F02CF927772807E3
:1010700015D5300713D521686FF0080008610420EA
:1010800020772068C0698007204602D0FFF7B7FFAD
:1010900004E000F071F8204600F014F92777E80624
:1010A00016D5F00614D521686FF0100008610820ED
:1010B00020772068C06910F4407F204602D0FFF7F7
:1010C0009EFF04E000F058F8204600F0FBF8277778
:1010D000E80708D0F00706D021686FF0010008612A
:1010E000204600F04BF9280608D5300606D52168C1
:1010F0006FF0800008612046FFF772FD680608D592
:10110000700606D521686FF040000861204600F0A7
:1011100055F9A8060AD5B00608D521686FF0200059
:1011200008612046BDE8F041FFF75BBDBDE8F081F6
:1011300000B585B0002100910191029103910068F2
:10114000B0F1804F11D10A48816941F004018161F9
:101150008069694600F00400049006200090022097
:10116000019003900348FFF717F905B000BD000098
:101170000010024000080140704770B5044690F826
:101180003C0000260D4601280FD0012084F83C00C9
:101190006AB1042A1DD0082A2FD00C2A3FD001267C
:1011A000002084F83C00304670BD022070BD2068ED
:1011B00000F094FD2068816941F008018161206898
:1011C000816921F004018161206881692A691143E4
:1011D00011E0206800F0B2FD2068816941F40061EF
:1011E00081612068816921F4806181612068816961
:1011F0002A6941EA02218161D2E7206800F0D4FD2A
:101200002068C16941F00801C1612068C16921F00D
:101210000401C1612068C1692A69114311E0206895
:1012200000F0F6FD2068C16941F40061C1612068E9
:10123000C16921F48061C1612068C1692A6941EAFC
:101240000221C161ACE710B5040003D094F83D0061
:1012500010B107E0012010BD002084F83C002046BA
:1012600000F01EF8022084F83D00211D206800F0E7
:10127000C7FC012084F8460084F83E0084F83F0053
:1012800084F8400084F8410084F8420084F8430068
:1012900084F8440084F8450084F83D00002010BD27
:1012A00008B50068B0F1804F08D10548C16941F028
:1012B0000101C161C06900F00100009008BD00009B
:1012C000001002407047000010B50446022249B1E8
:1012D00004290ED0082913D094F84100012816D013
:1012E000012010BD94F83E000128F9D184F83E2079
:1012F0000FE094F83F000128F2D184F83F2008E085
:1013000094F840000128EBD184F8402001E084F8F3
:1013100041200122206800F0C1FC13492068134AD3
:10132000884201D0904203D1436C43F400434364AC
:10133000206888420DD090420BD0B0F1804F08D089
:101340000B49884205D00B49884202D00A4988429D
:1013500004D1816801F00701062903D0016841F03A
:1013600001010160002010BD002C0140003401404B
:101370000004004000080040000C004070B50D4C17
:101380000546A078012802D100F08EFD60700A4960
:10139000286888420DD1E068401CE060502808D1E0
:1013A0000020E06001F096F84042E08001F0AAF8E9
:1013B000208170BD00000020000800407047704789
:1013C00070470000F8B5016804460868CA684B69B0
:1013D00010F00F0F4FF0000559D003F0010602F492
:1013E0009077374365D0C10705D0D10503D5616C2F
:1013F00041F001016164410705D5D90703D0616C53
:1014000041F002016164810705D5D90703D0616C01
:1014100041F004016164010707D502F02001314366
:1014200003D0616C41F008016164616C00293AD01D
:10143000800604D5900602D5204600F042FE2068C2
:101440004069616CC0F38010090700D460B3204686
:1014500000F010FE20684069400621D52068143055
:1014600050E8001F21F0400140E80012002AF5D1A9
:10147000E06BA8B16D494163E06BFEF7E3FE002825
:1014800011D0E06B416B01B0BDE8F0400847830626
:101490000FD593060DD52046BDE8F84000F011BEEB
:1014A0002046FFF78DFFF8BD2046FFF789FF6564F2
:1014B000F8BD266B2023012E7CD1C6067AD5D60630
:1014C00078D508684868009048694FF002064006E1
:1014D00040D5E16B086840680004000CE8D0A28D9C
:1014E0008242E5D9E085886920282DD020680C301B
:1014F00050E8001F21F4807140E80012002AF5D165
:101500002068143050E8001F21F0010140E800126B
:10151000002AF5D12068143050E8001F21F0400166
:1015200040E80012002AF5D184F842302563206893
:101530000C3050E8001F21F0100140E80012002A92
:10154000F5D1E06BFEF75BFE6663A08DE18D401A7E
:1015500081B22AE0A08DE18D401A81B2E08D002891
:10156000A6D00029A4D022680C3252E8000F20F443
:10157000907042E80007002FF5D12068143050E841
:10158000002F22F0010240E80027002FF5D184F857
:101590004230256320680C3050E8002F22F0100202
:1015A00040E80023002BF5D166632046FFF707FFD4
:1015B000F8BDFFE705062BD5150629D594F841009F
:1015C0002128F5D1A068B0F5805F01D12069B0B1C4
:1015D000206A411C2162216800784860E08C401E2E
:1015E0000004000CE084E3D12068C16821F0800190
:1015F000C1602068C16841F04001C160D8E7206A3D
:101600000088C0F308004860206A801C2062E5E77B
:101610004006CDD55006CBD5CA68204622F0400200
:10162000CA6084F8413000F01DF9C1E76520000868
:1016300070B5040004D094F84100002510B106E014
:10164000012070BD84F84050204600F023F824208B
:1016500084F841002068C16821F40051C16020462F
:1016600000F090FD2068016921F49041016120683B
:10167000416921F02A0141612068C16841F40051AB
:10168000C1606564202084F8410084F842006563ED
:10169000002070BD30B585B0002400940194029400
:1016A00003942F4D03682F4802210322AB4231D10E
:1016B000C36943F48013C361C36903F480130493C3
:1016C000836943F010038361836903F0100304937B
:1016D000836943F0200383618069039200F0200056
:1016E0000490C802CDE9000169461F48FEF754FE88
:1016F0000420CDE9000469461C480294FEF74CFE24
:10170000002211463520FEF7B9FF3520FEF7A8FF6D
:1017100005B030BD164DAB42FAD1836943F4804326
:101720008361836903F480430493836943F0040372
:1017300083618069039200F0040004906815CDE98C
:1017400000010C4D69462846FEF726FE2815CDE916
:101750000004694628460294FEF71EFED8E7000002
:1017600000500040001002400010014000140140F1
:10177000003801400008014090F84230202B01D091
:101780000220704721B11AB10023036300F056BD57
:10179000012070470068084988420CD1074800784A
:1017A0000D2803D00A2801D00449087101220349F9
:1017B0000348FFF7E1BF70470050004000000020E1
:1017C000440100202DE9F843044690F84100984672
:1017D00016460D46202802D00220BDE8F88385B1C8
:1017E0007EB100206064212084F84100FEF7DAFE1B
:1017F000A6848146E684A0682027B0F5805F02D0E9
:1018000003E00120E9E7206910B12E4600250EE033
:1018100000260CE08021204600F02BFDA8B9C6B1BF
:1018200016F8010B21684860E08C401EE084E08CD3
:101830004B464FF00002CDF800800028EAD14FF06F
:101840004001204600F015FD40B184F841700320AE
:10185000C3E735F8020BC0F30800E3E784F84170F2
:101860000020BAE77047FEE72DE9F04385B0002479
:101870002D480094019402940394816941F0100171
:101880008161816901F010010491816941F02001B9
:101890008161816901F020010491816941F00401B5
:1018A0008161816901F004010491816941F00801BD
:1018B00081618069DFF8748000F0080004900022E4
:1018C00030214046FEF769FEDFF864904FF442474E
:1018D000002239464846FEF760FE42F20A40CDE952
:1018E0000004694613480294FEF756FD0125CDE930
:1018F00000540226694640460296FEF74DFD302010
:10190000CDE90005CDE9024669464046FEF744FDB3
:1019100000970396CDE9015469464846FEF73CFD21
:1019200005B0BDE8F083000000100240000801404F
:10193000000C01400010014010B58AB0002407944B
:101940001C2168460894FEF716FC1A484FF08041A7
:1019500001604721C0E9011442F20F71C0E903148C
:1019600080218161FFF76FFC08B1FEF739FC079415
:1019700007A910480894FFF735F908B1FEF730FCC5
:101980006020CDE9000402940422694609480494C9
:10199000FFF7F3FB08B1FEF723FC08226946054870
:1019A000FFF7EBFB08B1FEF71BFC0248FFF7C0FB9B
:1019B0000AB010BD2400002010B58CB02421684668
:1019C000FEF7D9FB00241648099414490A940160D3
:1019D0000321C0E901144FF6FF72C0E903248022FD
:1019E000826100910120CDE9014003940494CDE986
:1019F0000540079469460A480894FFF721FA08B1A0
:101A0000FEF7EEFB099409A905480A94FFF7EAF8E6
:101A1000002801D0FEF7E4FB0CB010BD000400402C
:101A20006C00002010B586B0002417480094019483
:101A300002940394049413490594016041F61F41F4
:101A4000C0E901140921C0E9031480218161FFF775
:101A500007F908B1FEF7C4FB4FF4805000906946C7
:101A60000948FFF77FF908B1FEF7BAFB049404A90F
:101A700005480594FFF7B6F8002801D0FEF7B0FB43
:101A800006B010BD00080040B400002010B58CB0B6
:101A900024216846FEF76FFB002417480994154976
:101AA0000A9401600321C0E901144FF6FF72C0E9F6
:101AB00003248022C0E9054200910120CDE90140C4
:101AC00003940494CDE90540079469460A480894B4
:101AD000FFF7B6F908B1FEF783FB099409A9064898
:101AE0000A94FFF77FF8002801D0FEF779FB0CB0CD
:101AF00010BD000000340140FC0000200C4810B56F
:101B00000A4901604FF4E1314160002181600C22FB
:101B1000C160C0E904128161C161FFF789FD00283D
:101B200003D0BDE81040FEF75BBB10BD0050004085
:101B3000440100200C4810B50A4901604FF4E1311E
:101B40004160002181600C22C160C0E90412816102
:101B5000C161FFF76DFD002803D0BDE81040FEF71E
:101B60003FBB10BD003801408C010020FEE7FEE7BE
:101B70007047704710B50021084600F021FE012192
:101B8000002000F01DFEBDE81040C820FEF7F2BBAB
:101B9000FEF70EBD30B58FB028216846FEF7EBFA90
:101BA00014210AA8FEF7E7FA01210804CDE9001084
:101BB0000024029402250491CDE907504FF4E0106F
:101BC00009906846FEF768FE08B172B6FEE70F207E
:101BD000CDE90A054FF48060CDE90C4002210AA846
:101BE0000E94FEF77DFD002801D072B6FEE70FB01F
:101BF00030BD70470148FFF703BA0000B400002071
:101C0000F0B50268204C214D214E224F224B4FF05F
:101C1000804CA04209D0984207D0604505D0A84228
:101C200003D0B04201D0B84204D122F0700E4A680D
:101C300042EA0E02A04209D0984207D0604505D082
:101C4000A84203D0B04201D0B84203D122F440757B
:101C5000CA682A434D6922F080022A4302608A68DA
:101C6000C2620A688262A04201D0984201D1096929
:101C70000163012141610169C90703D0016921F0B4
:101C800001010161F0BD0000002C01400004004092
:101C900000080040000C00400034014010B501F085
:101CA0001F030121046A99408C430462016A9A402F
:101CB0001143016210BD10B5846842EA032224F486
:101CC0007F440A432243826010BD826822F0700282
:101CD0000A4342F00701816070470000F0B5036AD3
:101CE000026A22F00102026242688469124E24F004
:101CF00073050C682C4323F002058B682B430D4DB4
:101D0000A84201D0B04205D123F00807CB683B437D
:101D100023F00403A84201D0B04205D14D6922F45A
:101D2000407215438A692A4342608461496841636D
:101D30000362F0BD002C014000340140F0B5026A9E
:101D4000036A23F010030362436884690D6824F476
:101D5000E64444EA05248D6822F0200242EA051296
:101D60000F4D104EA84201D0B04206D1CF6822F0EC
:101D7000800242EA071222F04002A84201D0B0429B
:101D800007D14D6923F4406343EA85038D6943EA33
:101D9000850343608461496881630262F0BD00008D
:101DA000002C014000340140F0B5026A036A23F4BC
:101DB000807303624368C46922F4007224F07305DF
:101DC0000C68124E2C438D6842EA05220E4DA84243
:101DD00001D0B04206D1CF6822F4006242EA072265
:101DE00022F48062A84201D0B04207D14D6923F4A9
:101DF000405343EA05138D6943EA05134360C46108
:101E00004968C1630262F0BD002C0140003401400A
:101E100030B5046A026A22F4805202624268C369E1
:101E20000D6823F4E64343EA05238D6824F4005447
:101E300044EA0534084DA84202D0084DA84204D116
:101E40004D6922F4804242EA85124260C3614968CA
:101E50000164046230BD0000002C014000340140E8
:101E600010B5036A046A24F001040462846924F052
:101E7000F00444EA021423F00A020A438461026275
:101E800010BD10B5036A046A24F01004046284696A
:101E900023F0A00324F4704444EA023243EA01111F
:101EA0008261016210BD00002DE9F047414C022122
:101EB0002046FEF76DFB25154FF40059012811D17E
:101EC00029462046FEF764FB01280BD10821204655
:101ED000FEF75EFB012805D149462046FEF758FB78
:101EE000012813D002212046FEF752FB012805D11C
:101EF00008212046FEF74CFB012806D02946204643
:101F0000FEF746FB012803D008E00220BDE8F08779
:101F100049462046FEF73CFB012824D002212046FA
:101F2000FEF736FB6FF01D066FF0130701281CD07B
:101F300008212046FEF72CFB6FF00E0801281BD06D
:101F400029462046FEF724FB01281CD0494620469E
:101F5000FEF71EFB012819D002212046FEF718FBD0
:101F6000012816D023E00320D0E70021304600F0FE
:101F700027FC0121384618E00021304600F020FC03
:101F80000121404611E0002138460AE00021404688
:101F900007E029462046FEF7FBFA012807D1002179
:101FA000304600F00DFC0121304600F009FC002015
:101FB000ACE700000010014010B5FEF713F9C8208F
:101FC000FEF7D8F9FFF7D6FD00216FF01D0000F0F5
:101FD000F7FB01211E2000F0F3FB4FF4C860FEF771
:101FE000C9F9FFF7C7FDBDE810404FF47A70FEF75E
:101FF000C1B910B5FEF7F6F8C820FEF7BBF9FFF738
:10200000B9FD00216FF01D0000F0DAFB0121142062
:1020100000F0D6FB40F24C40FEF7ACF9BDE81040B2
:10202000FFF7A8BD10B5FEF7DDF8C820FEF7A2F94E
:10203000FFF7A0FD0021142000F0C2FB01216FF08A
:102040001D0000F0BDFB40F24C40FEF793F9BDE8E7
:102050001040FFF78FBD00000148FFF7B3B9000043
:102060004401002010B5406A0021C185C184FFF7FA
:10207000A7F910BD01680C3151E8002F22F49072CD
:1020800041E80023002BF5D10168143151E8002FFD
:1020900022F0010241E80023002BF5D1016B012958
:1020A00009D101680C3151E8002F22F0100241E8FB
:1020B0000023002BF5D1202180F84210002101637C
:1020C000704708B590F84210222901D0022008BDBF
:1020D00082684FF480539A4201D1016921B1816A2B
:1020E0009A421BD04AB10AE00268816A5268C2F380
:1020F00008020A80816A891C08E0026972B10268DC
:10210000526802F07F020A70816A491C8162C18DA7
:10211000491E0904090CC18503D01BE002685268FE
:10212000F1E70168CA6822F02002CA600168CA6843
:1021300022F48072CA6001684A6922F001024A6191
:10214000202180F8421000214163026B012A03D054
:10215000FFF720FB002008BD016301680C3151E846
:10216000002F22F0100241E80023002BF5D1016876
:102170000A68D20602D50A6849680091818DFFF786
:102180001EF9E7E770B5044600680169E26821F4CA
:102190004051114301612169A06808436169084306
:1021A0002168CA6841F20C639A430243CA602068FE
:1021B0004169A26921F44071114341611E492068BF
:1021C000884202D1FEF732FB01E0FEF71FFB00EB75
:1021D000C00101EB0012606864218000B2FBF0F3E3
:1021E000B3FBF1F36FF018067343B2FBF0F5B2FBEB
:1021F000F0F605EB8305322303EB0515B5FBF1F58E
:10220000B6FBF1F605F0F00505EB0615B2FBF0F6AE
:10221000B2FBF0F0B0FBF1F06FF01802504306EBA8
:10222000800003EB0010B0FBF1F0216800F00F001C
:102230002844886070BD00000038014081628285BA
:10224000C28500214164222180F84210016921B138
:102250000168CA6842F48072CA6001684A6942F043
:1022600001024A610068C16841F02001C16000209C
:1022700070472DE9F843984617460D460446089ED8
:1022800024E0701C22D0FEF78DF9A0EB0800B042CC
:102290001AD8CEB12068C168490717D5802D15D04E
:1022A000402D13D00168C94309070FD401680025E8
:1022B000406800902046FFF7DDFE0820606484F847
:1022C00040500120BDE8F8830320FBE72068006848
:1022D00035EA000004D00020B842D2D00020F1E757
:1022E0000120F9E7FEE700000FB4054B10B503A984
:1022F000044A029800F028F810BC5DF814FB0000B6
:10230000BD240008200000200907090E002804DB76
:1023100000F1E02080F80014704700F00F0000F199
:10232000E02080F8141D704702E008C8121F08C1A1
:10233000002AFAD170477047002001E001C1121F46
:10234000002AFBD1704700002DE9FF4F89B09B4662
:102350000446002506E025280BD05A460B999047E5
:10236000641C6D1C20780028F5D10DB02846BDE80E
:10237000F08F0027B8460122474900E0074314F8D0
:10238000013F203B02FA03F00842F7D120782E28C3
:1023900019D114F8010F47F004072A280ED06FF066
:1023A0002F022078A0F1300109290CD808EB880110
:1023B00002EB410100EB0108641CF2E70A98641C7F
:1023C00050F8048B0A9020780028CED0642808D0DA
:1023D000692806D075281ED05A460B9990476D1C67
:1023E00058E00A994FF00A0901C90A91002802DA57
:1023F00040422D2102E0390504D52B218DF8201013
:10240000012103E0F90704D02021F7E78A4608AE4E
:102410000DE00021FAE70A994FF00A0901C90A9173
:10242000F7E74946FDF7B2FE303106F8011D0028F6
:10243000F7D1ADEB060000F12009780701D44FF089
:102440000108C84502DDA8EB090000E00020804635
:10245000002706E008A85A46C05D0B9990476D1CFE
:102460007F1C5745F6DB04E030205A460B99904715
:102470006D1CB8F10001A8F10108F5DC05E016F8C3
:10248000010B5A460B9990476D1CB9F10001A9F157
:102490000109F4DC641C65E70928010010B53C2142
:1024A0000448FEF765FDBDE810403C210248FEF7F8
:1024B0005FBD00006C000020FC00002013B54FF051
:1024C000FF33012269460248FFF77CF900981CBDE2
:1024D0008C0100200A480168486A002200B24A6262
:1024E00042F21071884202DDA0EB410000B242F2DC
:1024F0001071C84202DA4900084400B27047000077
:102500006C0000200A480168486A002200B24A6252
:1025100042F21071884202DDA0EB410000B242F2AB
:102520001071C84202DA4900084400B27047000046
:10253000FC000020FEF744F8FFF72CFBFFF794F9AE
:10254000FFF7F8FAFFF76EFAFFF7F6F9FFF734FA3C
:10255000FFF79CFAFFF7D2FA7648FEF7CDFB082189
:102560007548FEF7B1FE04217348FEF7ADFEFFF794
:1025700095FF00216FF01A0000F022F96FF01D079F
:102580000121384600F01CF901226C496C48FFF724
:10259000F3F86A4C4FF050094FF0310A4FF4007BCA
:1025A00000254FF00108A57001216648FDF7F0FFF6
:1025B0000028F8D14646A67000216FF01A0000F0FE
:1025C000FFF80121384600F0FBF8227961785EA01F
:1025D000FFF78AFE6078012877D1207930280DD165
:1025E000A6704FF4FA60FDF7C5FEA570FFF7E4FC96
:1025F000A67084F804906078012872D1207931287F
:1026000006D032281DD033282FD0342838D056E0B9
:10261000012259464E48FDF7C0FFA570FFF7E9FCBF
:102620002279617848A0FFF75FFEA6704FF4FA6048
:10263000FDF7A0FEA570FFF7BFFCA670512020712A
:102640003AE0A570012259464148FDF7A6FFFFF781
:10265000E9FCA6704FF4FA60FDF78CFEA570FFF759
:10266000ABFCA67084F8049026E0DFF8E480012239
:1026700059464046FDF791FFA570FFF7BAFC09E007
:10268000DFF8CC80012259464046FDF786FFA57051
:10269000FFF7C8FCA67084F803A05346227961783E
:1026A0002CA0FFF721FEC820FDF764FE002259464A
:1026B0004046FDF772FF25716078012811D120791D
:1026C000502803D0512807D020E00AE0A570FFF77A
:1026D00090FCA670257104E0A570FFF7A3FCA6701E
:1026E00026716078022802D0032807D00EE02079F6
:1026F00001280BD1A570FFF77CFC05E020790128AB
:1027000004D1A570FFF78EFCA6702671E378312BFB
:102710007FF451AF2079502801D05128F8D126718B
:10272000A670324661780BA0FFF7DEFDC820FDF7EA
:1027300021FE40E7B400002024000020000000201B
:10274000440100200008014025642C25640D0A0086
:10275000000C014025642C25642C25640D0A000022
:1027600070B580B14FF48040134C4500E1B1014693
:1027700000222046FDF711FF012229462046BDE830
:102780007040FDF70ABF0D4C39B1002210212046E0
:10279000FDF703FF01222021F0E70122102120464E
:1027A000FDF7FBFE0022F6E7014601222046FDF779
:1027B000F4FE0022E1E70000000C014000080140A7
:1027C00070B5642200FB02F64243114C554241B100
:1027D000002816DB01210846FFF7C2FF2068866348
:1027E00070BD002806DB01210020FFF7B9FF20683B
:1027F000C66370BD00210846FFF7B2FF2068C563BD
:1028000070BD00210120FFF7ABFF2068856370BD1C
:1028100024000020010202030405060708090A0B30
:102820000C0D0E0F1010000000000000000001024F
:102830000304060708090000000001020304000069
:102840006028000800000020240000002823000861
:102850008428000824000020B40500003823000864
:102860000000000000000000000000000000000068
:1028700001000000100000000000000000127A00BB
:042880000000000054
:0400000508000131BD
:00000001FF
